S011000046494E414C5F4C45442E7372656375
S11300000C943E000C9450000C9450000C9450003E
S11300100C9450000C9450000C9450000C9450001C
S11300200C9450000C9450000C9450000C9450000C
S11300300C9450000C9450000C9450000C945000FC
S11300400C9450000C9450000C9450000C945000EC
S11300500C9450000C9450000C9450000C945000DC
S11300600C9450000C9450000C9450000C945000CC
S11300700C9450000C9450000C94500011241FBE9A
S1130080CFEFD0E1DEBFCDBF21E0A0E0B1E001C001
S11300901D92A633B207E1F70E9452000C94C300EC
S11300A00C940000CF93DF93A3E0B1E066E371E02A
S11300B043E050E0DFEF11961C921197DC93129607
S11300C01C921297259A95B19F7D25B12062CFB7D6
S11300D0F89441155105A9F0E0E0F1E0819138E090
S11300E025B9000000C087FF95B9880F000000C043
S11300F000C000C095B900C03A9591F7EA17FB0714
S113010069F7CFBF8FEA94E00197F1F700C00000D0
S1130110269A95B19F7B25B12064CFB7F8944115F9
S11301205105A9F0E0E0F1E0819138E025B9000043
S113013000C087FF95B9880F000000C000C000C050
S113014095B900C03A9591F7EA17FB0769F7CFBF55
S11301508FEA94E00197F1F700C000009FEF29E6D1
S113016088E1915020408040E1F700C000001396E0
S11301704D5F5F4FA617B70709F09DCF80E090E071
S10D0180DF91CF910895F894FFCFAA
S9030000FC
